{
  "contractName": "HashingSpace",
  "abi": [
    {
      "inputs": [
        {
          "internalType": "bytes32",
          "name": "_imgHash",
          "type": "bytes32"
        },
        {
          "internalType": "string",
          "name": "_name",
          "type": "string"
        }
      ],
      "payable": false,
      "stateMutability": "nonpayable",
      "type": "constructor"
    },
    {
      "constant": true,
      "inputs": [],
      "name": "imgHash",
      "outputs": [
        {
          "internalType": "bytes32",
          "name": "",
          "type": "bytes32"
        }
      ],
      "payable": false,
      "stateMutability": "view",
      "type": "function"
    },
    {
      "constant": true,
      "inputs": [],
      "name": "name",
      "outputs": [
        {
          "internalType": "string",
          "name": "",
          "type": "string"
        }
      ],
      "payable": false,
      "stateMutability": "view",
      "type": "function"
    },
    {
      "constant": true,
      "inputs": [
        {
          "internalType": "bytes32",
          "name": "_testHash",
          "type": "bytes32"
        }
      ],
      "name": "validate",
      "outputs": [
        {
          "internalType": "bool",
          "name": "",
          "type": "bool"
        }
      ],
      "payable": false,
      "stateMutability": "view",
      "type": "function"
    }
  ],
  "bytecode": "0x608060405234801561001057600080fd5b5060405161047f38038061047f8339818101604052604081101561003357600080fd5b81019080805190602001909291908051604051939291908464010000000082111561005d57600080fd5b8382019150602082018581111561007357600080fd5b825186600182028301116401000000008211171561009057600080fd5b8083526020830192505050908051906020019080838360005b838110156100c45780820151818401526020810190506100a9565b50505050905090810190601f1680156100f15780820380516001836020036101000a031916815260200191505b5060405250505081600081905550806001908051906020019061011592919061019b565b5060008090505b6005811015610193576000805482604051602001808381526020018281526020019250505060405160208183030381529060405280519060200120905060016002600083815260200190815260200160002060006101000a81548160ff02191690831515021790555050808060010191505061011c565b505050610240565b828054600181600116156101000203166002900490600052602060002090601f016020900481019282601f106101dc57805160ff191683800117855561020a565b8280016001018555821561020a579182015b828111156102095782518255916020019190600101906101ee565b5b509050610217919061021b565b5090565b61023d91905b80821115610239576000816000905550600101610221565b5090565b90565b6102308061024f6000396000f3fe608060405234801561001057600080fd5b50600436106100415760003560e01c806306fdde03146100465780632e012698146100c95780635a41c8551461010f575b600080fd5b61004e61012d565b6040518080602001828103825283818151815260200191508051906020019080838360005b8381101561008e578082015181840152602081019050610073565b50505050905090810190601f1680156100bb5780820380516001836020036101000a031916815260200191505b509250505060405180910390f35b6100f5600480360360208110156100df57600080fd5b81019080803590602001909291905050506101cb565b604051808215151515815260200191505060405180910390f35b6101176101f5565b6040518082815260200191505060405180910390f35b60018054600181600116156101000203166002900480601f0160208091040260200160405190810160405280929190818152602001828054600181600116156101000203166002900480156101c35780601f10610198576101008083540402835291602001916101c3565b820191906000526020600020905b8154815290600101906020018083116101a657829003601f168201915b505050505081565b60006002600083815260200190815260200160002060009054906101000a900460ff169050919050565b6000548156fea265627a7a72315820140f449d88fd71a65abc3a797a7f2aa4fd1c34c7c1de638e2c4012fb3e1f284964736f6c63430005100032",
  "source": "pragma solidity >= 0.5.0 < 0.7.0;\n\ncontract HashingSpace {\n  bytes32 public imgHash;\n  string public name;\n  mapping(bytes32 => bool) hs;\n\n  constructor( bytes32 _imgHash, string memory _name ) public {\n    imgHash = _imgHash;\n    name = _name;\n    for(uint i = 0; i < 5; i++) {\n      bytes32 hashI = keccak256(abi.encodePacked(imgHash, i));\n      hs[hashI] = true;\n    }\n  }\n\n  function validate( bytes32 _testHash ) public view returns (bool){\n    return hs[_testHash];\n  }\n}\n",
  "sourcePath": "/home/ronaldsg/Tru/poh-js/dependencies/contracts/contracts/HashingSpace.sol",
  "compiler": {
    "name": "solc",
    "version": "0.5.16+commit.9c3226ce.Emscripten.clang"
  },
  "schemaVersion": "3.1.0",
  "updatedAt": "2020-09-29T20:20:46.489Z",
  "devdoc": {
    "methods": {}
  },
  "userdoc": {
    "methods": {}
  }
}