{
  "contractName": "Hub",
  "abi": [
    {
      "inputs": [],
      "payable": false,
      "stateMutability": "nonpayable",
      "type": "constructor"
    },
    {
      "constant": false,
      "inputs": [
        {
          "internalType": "bytes32",
          "name": "_imgHash",
          "type": "bytes32"
        },
        {
          "internalType": "string",
          "name": "_name",
          "type": "string"
        }
      ],
      "name": "addHashingSpace",
      "outputs": [],
      "payable": false,
      "stateMutability": "nonpayable",
      "type": "function"
    },
    {
      "constant": true,
      "inputs": [
        {
          "internalType": "uint256",
          "name": "_idx",
          "type": "uint256"
        }
      ],
      "name": "userHashingSpaces",
      "outputs": [
        {
          "internalType": "contract HashingSpaceStandard",
          "name": "",
          "type": "address"
        }
      ],
      "payable": false,
      "stateMutability": "view",
      "type": "function"
    }
  ],
  "bytecode": "0x608060405234801561001057600080fd5b506107f8806100206000396000f3fe608060405234801561001057600080fd5b50600436106100365760003560e01c80637dce77271461003b5780638a80d18a146100a9575b600080fd5b6100676004803603602081101561005157600080fd5b810190808035906020019092919050505061016e565b604051808273ffffffffffffffffffffffffffffffffffffffff1673ffffffffffffffffffffffffffffffffffffffff16815260200191505060405180910390f35b61016c600480360360408110156100bf57600080fd5b8101908080359060200190929190803590602001906401000000008111156100e657600080fd5b8201836020820111156100f857600080fd5b8035906020019184600183028401116401000000008311171561011a57600080fd5b91908080601f016020809104026020016040519081016040528093929190818152602001838380828437600081840152601f19601f8201169050808301925050505050505091929192905050506101eb565b005b60008060003373ffffffffffffffffffffffffffffffffffffffff1673ffffffffffffffffffffffffffffffffffffffff16815260200190815260200160002082815481106101b957fe5b9060005260206000200160009054906101000a900473ffffffffffffffffffffffffffffffffffffffff169050919050565b600082826040516101fb90610337565b8083815260200180602001828103825283818151815260200191508051906020019080838360005b8381101561023e578082015181840152602081019050610223565b50505050905090810190601f16801561026b5780820380516001836020036101000a031916815260200191505b509350505050604051809103906000f08015801561028d573d6000803e3d6000fd5b5090506000803373ffffffffffffffffffffffffffffffffffffffff1673ffffffffffffffffffffffffffffffffffffffff1681526020019081526020016000208190806001815401808255809150509060018203906000526020600020016000909192909190916101000a81548173ffffffffffffffffffffffffffffffffffffffff021916908373ffffffffffffffffffffffffffffffffffffffff16021790555050505050565b61047f806103458339019056fe608060405234801561001057600080fd5b5060405161047f38038061047f8339818101604052604081101561003357600080fd5b81019080805190602001909291908051604051939291908464010000000082111561005d57600080fd5b8382019150602082018581111561007357600080fd5b825186600182028301116401000000008211171561009057600080fd5b8083526020830192505050908051906020019080838360005b838110156100c45780820151818401526020810190506100a9565b50505050905090810190601f1680156100f15780820380516001836020036101000a031916815260200191505b5060405250505081600081905550806001908051906020019061011592919061019b565b5060008090505b6005811015610193576000805482604051602001808381526020018281526020019250505060405160208183030381529060405280519060200120905060016002600083815260200190815260200160002060006101000a81548160ff02191690831515021790555050808060010191505061011c565b505050610240565b828054600181600116156101000203166002900490600052602060002090601f016020900481019282601f106101dc57805160ff191683800117855561020a565b8280016001018555821561020a579182015b828111156102095782518255916020019190600101906101ee565b5b509050610217919061021b565b5090565b61023d91905b80821115610239576000816000905550600101610221565b5090565b90565b6102308061024f6000396000f3fe608060405234801561001057600080fd5b50600436106100415760003560e01c806306fdde03146100465780632e012698146100c95780635a41c8551461010f575b600080fd5b61004e61012d565b6040518080602001828103825283818151815260200191508051906020019080838360005b8381101561008e578082015181840152602081019050610073565b50505050905090810190601f1680156100bb5780820380516001836020036101000a031916815260200191505b509250505060405180910390f35b6100f5600480360360208110156100df57600080fd5b81019080803590602001909291905050506101cb565b604051808215151515815260200191505060405180910390f35b6101176101f5565b6040518082815260200191505060405180910390f35b60018054600181600116156101000203166002900480601f0160208091040260200160405190810160405280929190818152602001828054600181600116156101000203166002900480156101c35780601f10610198576101008083540402835291602001916101c3565b820191906000526020600020905b8154815290600101906020018083116101a657829003601f168201915b505050505081565b60006002600083815260200190815260200160002060009054906101000a900460ff169050919050565b6000548156fea265627a7a7231582024fd5bbcc105bb070ed4d2ebac4b66bc54260bd7696be85f6391ff5ed7d2c31864736f6c63430005100032a265627a7a72315820b92b6befe231ea274d8e9eb7529e139238427d85e99267daba6e771ea7d87b6564736f6c63430005100032",
  "source": "pragma solidity >= 0.5.0 < 0.7.0;\n\nimport \"./HashingSpaceStandard.sol\";\n\ncontract Hub {\n  mapping(address => HashingSpaceStandard[]) _userHashingSpaces;\n\n  constructor() public {\n  }\n\n  function addHashingSpace(bytes32 _imgHash, string memory _name) public {\n    HashingSpaceStandard _hashingSpace = new HashingSpaceStandard(_imgHash, _name);\n    _userHashingSpaces[msg.sender].push(_hashingSpace);\n  }\n\n  function userHashingSpaces(uint _idx) public view returns (HashingSpaceStandard) {\n    return _userHashingSpaces[msg.sender][_idx];\n  }\n}\n",
  "sourcePath": "/home/annipi/TRU/poh-js/dependencies/contracts/contracts/Hub.sol",
  "compiler": {
    "name": "solc",
    "version": "0.5.16+commit.9c3226ce.Emscripten.clang"
  },
  "schemaVersion": "3.1.0",
  "updatedAt": "2020-09-23T21:23:42.464Z",
  "networkType": "ethereum",
  "devdoc": {
    "methods": {}
  },
  "userdoc": {
    "methods": {}
  }
}