{
  "contractName": "Hub",
  "abi": [
    {
      "inputs": [],
      "payable": false,
      "stateMutability": "nonpayable",
      "type": "constructor"
    },
    {
      "constant": true,
      "inputs": [],
      "name": "owner",
      "outputs": [
        {
          "internalType": "address",
          "name": "",
          "type": "address"
        }
      ],
      "payable": false,
      "stateMutability": "view",
      "type": "function"
    },
    {
      "constant": false,
      "inputs": [
        {
          "internalType": "bytes32",
          "name": "_imgHash",
          "type": "bytes32"
        },
        {
          "internalType": "string",
          "name": "_name",
          "type": "string"
        },
        {
          "internalType": "address",
          "name": "_user",
          "type": "address"
        }
      ],
      "name": "addHashingSpace",
      "outputs": [],
      "payable": false,
      "stateMutability": "nonpayable",
      "type": "function"
    },
    {
      "constant": true,
      "inputs": [
        {
          "internalType": "uint256",
          "name": "_idx",
          "type": "uint256"
        },
        {
          "internalType": "address",
          "name": "_user",
          "type": "address"
        }
      ],
      "name": "getApiKey",
      "outputs": [
        {
          "internalType": "bytes32",
          "name": "apiKey",
          "type": "bytes32"
        }
      ],
      "payable": false,
      "stateMutability": "view",
      "type": "function"
    },
    {
      "constant": true,
      "inputs": [
        {
          "internalType": "bytes32",
          "name": "apiKey",
          "type": "bytes32"
        }
      ],
      "name": "getHashingSpace",
      "outputs": [
        {
          "internalType": "contract HashingSpace",
          "name": "hashingSpaceIndex",
          "type": "address"
        }
      ],
      "payable": false,
      "stateMutability": "view",
      "type": "function"
    }
  ],
  "bytecode": "0x608060405234801561001057600080fd5b5033600260006101000a81548173ffffffffffffffffffffffffffffffffffffffff021916908373ffffffffffffffffffffffffffffffffffffffff160217905550610a72806100616000396000f3fe608060405234801561001057600080fd5b506004361061004c5760003560e01c806315211e1e146100515780638da5cb5b146100b3578063c4ffe9d6146100fd578063d06219db1461016b575b600080fd5b61009d6004803603604081101561006757600080fd5b8101908080359060200190929190803573ffffffffffffffffffffffffffffffffffffffff169060200190929190505050610250565b6040518082815260200191505060405180910390f35b6100bb610308565b604051808273ffffffffffffffffffffffffffffffffffffffff1673ffffffffffffffffffffffffffffffffffffffff16815260200191505060405180910390f35b6101296004803603602081101561011357600080fd5b810190808035906020019092919050505061032e565b604051808273ffffffffffffffffffffffffffffffffffffffff1673ffffffffffffffffffffffffffffffffffffffff16815260200191505060405180910390f35b61024e6004803603606081101561018157600080fd5b8101908080359060200190929190803590602001906401000000008111156101a857600080fd5b8201836020820111156101ba57600080fd5b803590602001918460018302840111640100000000831117156101dc57600080fd5b91908080601f016020809104026020016040519081016040528093929190818152602001838380828437600081840152601f19601f820116905080830192505050505050509192919290803573ffffffffffffffffffffffffffffffffffffffff16906020019092919050505061036b565b005b6000600260009054906101000a900473ffffffffffffffffffffffffffffffffffffffff1673ffffffffffffffffffffffffffffffffffffffff163373ffffffffffffffffffffffffffffffffffffffff16146102ac57600080fd5b6000808373ffffffffffffffffffffffffffffffffffffffff1673ffffffffffffffffffffffffffffffffffffffff16815260200190815260200160002083815481106102f557fe5b9060005260206000200154905092915050565b600260009054906101000a900473ffffffffffffffffffffffffffffffffffffffff1681565b60006001600083815260200190815260200160002060009054906101000a900473ffffffffffffffffffffffffffffffffffffffff169050919050565b600260009054906101000a900473ffffffffffffffffffffffffffffffffffffffff1673ffffffffffffffffffffffffffffffffffffffff163373ffffffffffffffffffffffffffffffffffffffff16146103c557600080fd5b60008383436040516020018084815260200183805190602001908083835b6020831061040657805182526020820191506020810190506020830392506103e3565b6001836020036101000a03801982511681845116808217855250505050505090500182815260200193505050506040516020818303038152906040528051906020012090506000808373ffffffffffffffffffffffffffffffffffffffff1673ffffffffffffffffffffffffffffffffffffffff168152602001908152602001600020819080600181540180825580915050906001820390600052602060002001600090919290919091505550600084846040516104c3906105b1565b8083815260200180602001828103825283818151815260200191508051906020019080838360005b838110156105065780820151818401526020810190506104eb565b50505050905090810190601f1680156105335780820380516001836020036101000a031916815260200191505b509350505050604051809103906000f080158015610555573d6000803e3d6000fd5b509050806001600084815260200190815260200160002060006101000a81548173ffffffffffffffffffffffffffffffffffffffff021916908373ffffffffffffffffffffffffffffffffffffffff1602179055505050505050565b61047f806105bf8339019056fe608060405234801561001057600080fd5b5060405161047f38038061047f8339818101604052604081101561003357600080fd5b81019080805190602001909291908051604051939291908464010000000082111561005d57600080fd5b8382019150602082018581111561007357600080fd5b825186600182028301116401000000008211171561009057600080fd5b8083526020830192505050908051906020019080838360005b838110156100c45780820151818401526020810190506100a9565b50505050905090810190601f1680156100f15780820380516001836020036101000a031916815260200191505b5060405250505081600081905550806001908051906020019061011592919061019b565b5060008090505b6005811015610193576000805482604051602001808381526020018281526020019250505060405160208183030381529060405280519060200120905060016002600083815260200190815260200160002060006101000a81548160ff02191690831515021790555050808060010191505061011c565b505050610240565b828054600181600116156101000203166002900490600052602060002090601f016020900481019282601f106101dc57805160ff191683800117855561020a565b8280016001018555821561020a579182015b828111156102095782518255916020019190600101906101ee565b5b509050610217919061021b565b5090565b61023d91905b80821115610239576000816000905550600101610221565b5090565b90565b6102308061024f6000396000f3fe608060405234801561001057600080fd5b50600436106100415760003560e01c806306fdde03146100465780632e012698146100c95780635a41c8551461010f575b600080fd5b61004e61012d565b6040518080602001828103825283818151815260200191508051906020019080838360005b8381101561008e578082015181840152602081019050610073565b50505050905090810190601f1680156100bb5780820380516001836020036101000a031916815260200191505b509250505060405180910390f35b6100f5600480360360208110156100df57600080fd5b81019080803590602001909291905050506101cb565b604051808215151515815260200191505060405180910390f35b6101176101f5565b6040518082815260200191505060405180910390f35b60018054600181600116156101000203166002900480601f0160208091040260200160405190810160405280929190818152602001828054600181600116156101000203166002900480156101c35780601f10610198576101008083540402835291602001916101c3565b820191906000526020600020905b8154815290600101906020018083116101a657829003601f168201915b505050505081565b60006002600083815260200190815260200160002060009054906101000a900460ff169050919050565b6000548156fea265627a7a72315820140f449d88fd71a65abc3a797a7f2aa4fd1c34c7c1de638e2c4012fb3e1f284964736f6c63430005100032a265627a7a72315820f574d895792b8d8b355065f35ec551968cd277e85760c77a3a91838704d5ce9d64736f6c63430005100032",
  "source": "pragma solidity >= 0.5.0 < 0.7.0;\n\nimport \"./HashingSpace.sol\";\n\ncontract Hub {\n  mapping(address => bytes32[]) userApiKeys;\n  mapping(bytes32 => HashingSpace) userHashingSpaces;\n  address public owner;\n\n  constructor() public {\n    owner = msg.sender;\n  }\n\n  modifier onlyOwner() {\n    require(msg.sender == owner);\n    _;\n  }\n\n  function addHashingSpace(bytes32 _imgHash, string memory _name, address _user) public onlyOwner {\n    bytes32 _apiKey = keccak256(abi.encodePacked(_imgHash, _name, block.number));\n    userApiKeys[_user].push(_apiKey);\n    HashingSpace _hashingSpace = new HashingSpace(_imgHash, _name);\n    userHashingSpaces[_apiKey] = _hashingSpace;\n  }\n\n  function getApiKey(uint _idx, address _user) public view onlyOwner returns (bytes32 apiKey) {\n    apiKey = userApiKeys[_user][_idx];\n  }\n\n  function getHashingSpace(bytes32 apiKey) public view returns (HashingSpace hashingSpaceIndex) {\n    hashingSpaceIndex = userHashingSpaces[apiKey];\n  }\n}\n",
  "sourcePath": "/home/ronaldsg/Tru/poh-js/dependencies/contracts/contracts/Hub.sol",
  "compiler": {
    "name": "solc",
    "version": "0.5.16+commit.9c3226ce.Emscripten.clang"
  },
  "schemaVersion": "3.1.0",
  "updatedAt": "2020-09-29T20:20:46.492Z",
  "devdoc": {
    "methods": {}
  },
  "userdoc": {
    "methods": {}
  }
}